S012000074696D65725F746573742E73726563D2
S113000071C0000081C000007FC000007DC00000FE
S11300107BC0000079C0000077C0000075C00000FC
S113002073C0000071C000006FC000006DC000000C
S11300306BC0000069C0000067C0000065C000001C
S113004063C0000088C000005FC000005DC0000005
S11300505BC0000059C0000057C0000055C000003C
S113006053C0000051C000004FC000004DC000004C
S11300704BC0000049C0000047C0000045C000005C
S113008043C0000041C000003FC000003DC000006C
S11300903BC0000039C0000037C0000035C000007C
S11300A033C0000031C000002FC000002DC000008C
S11300B02BC0000029C0000027C0000025C000009C
S11300C023C0000021C000001FC000001DC00000AC
S11300D01BC0000019C0000017C0000015C00000BC
S11300E013C0000011241FBECFEFD1E2DEBFCDBF8D
S11300F000E00CBF22E0A0E0B2E001C01D92A230FB
S1130100B207E1F712D03EC07BCF1092C50087E65C
S11301108093C400E1ECF0E0808188698083E2ECA4
S1130120F0E08081866080830895EFDF84E280932D
S1130130880084EF80938900E1E8F0E080818860A2
S11301408083AFE6B0E08C9182608C938081846080
S113015080837894FFCF1F920F920FB60F921124D1
S11301608F939F9380910002909101020196909346
S11301700102809300029F918F910F900FBE0F9008
S10B01801F901895F894FFCFBD
S9030000FC
