:1000000071C000008EC000008CC000008AC00000DB
:1000100088C0000086C0000084C0000082C00000CC
:1000200080C000007EC000007CC000007AC00000DC
:1000300078C0000076C0000074C0000072C00000EC
:1000400070C00000A6C000006CC000006AC00000C4
:1000500068C0000066C0000064C0000062C000000C
:1000600060C000005EC000005CC000005AC000001C
:1000700058C0000056C0000054C0000052C000002C
:1000800050C000004EC000004CC000004AC000003C
:1000900048C0000046C0000044C0000042C000004C
:1000A00040C000003EC000003CC000003AC000005C
:1000B00038C0000036C0000034C0000032C000006C
:1000C00030C000002EC000002CC000002AC000007C
:1000D00028C0000026C0000024C0000022C000008C
:1000E00020C0000011241FBECFEFD1E2DEBFCDBF84
:1000F00000E00CBF12E0A0E0B2E0E6E9F2E000E0D0
:100100000BBF02C007900D92A430B107D9F722E0CF
:10011000A4E0B2E001C01D92A830B207E1F71FD001
:10012000B8C06ECFFC018081882341F09091C0005F
:1001300095FFFCCF8093C6003196F5CF08951092BD
:10014000C50087E68093C400E1ECF0E08081886917
:100150008083E2ECF0E08081866080830895EFDFA9
:10016000109285001092840089E09DE390938900AD
:1001700080938800E1E8F0E0808188608083AFE6CA
:10018000B0E08C9182608C938081856080837894CC
:10019000FFCF1F920F920FB60F9211240BB60F9242
:1001A0002F933F934F935F936F937F938F939F937F
:1001B000AF93BF93EF93FF93CF93DF93CDB7DEB7AA
:1001C0002A97DEBFCDBF809104029091050201966F
:1001D0009093070280930602109205021092040287
:1001E0004AE0BE016F5F7F4F21D0CE0101969ADFBA
:1001F00080E092E097DF2A960FB6F894DEBF0FBE3C
:10020000CDBFDF91CF91FF91EF91BF91AF919F91C2
:100210008F917F916F915F914F913F912F910F90AF
:100220000BBE0F900FBE0F901F901895BB274A3042
:1002300031F4992322F4BDE2909581959F4F01C03E
:10024000BB27FB015527AA27880F991FAA1FA417B0
:1002500010F0A41B83955051B9F7A05DAA3308F0A4
:10026000A95DA193009779F7B111B1931192CB01D8
:1002700000C0DC01FC01672F71917723E1F7329711
:1002800004C07C916D9370836291AE17BF07C8F371
:060290000895F894FFCF71
:040296000D0A00004D
:00000001FF
