S019000049525F574954485F464C4F574D455445522E73726563C1
S113000071C000008EC0000047C100005CC1000048
S113001088C0000086C0000084C0000082C00000C8
S113002080C000007EC000007CC000007AC00000D8
S113003078C0000076C0000074C0000072C00000E8
S113004070C000006EC000006CC000006AC00000F8
S113005068C0000066C0000064C0000062C0000008
S113006060C00000CBC000005CC000005AC00000AB
S113007058C0000056C0000054C0000052C0000028
S113008050C000004EC000004CC000004AC0000038
S1130090DCC0000046C0000044C0000042C00000B4
S11300A040C000003EC000003CC000003AC0000058
S11300B038C0000036C0000034C0000032C0000068
S11300C030C000002EC000002CC000002AC0000078
S11300D028C0000026C0000024C0000022C0000088
S11300E020C0000011241FBECFEFD1E2DEBFCDBF80
S11300F000E00CBF12E0A0E0B2E0E6EFF2E000E0C6
S11301000BBF02C007900D92A030B107D9F724E0CD
S1130110A0E0B2E001C01D92AD30B207E1F722D0F9
S1130120E8C06ECF1092C50087E68093C400E1EC6E
S1130130F0E0808188698083E2ECF0E08081866071
S1130140808308951092CD0087E68093CC00E9EC7B
S1130150F0E0808188698083EAECF0E08081866049
S113016080830895DFDFEEDF8DB381608DBBE9E628
S1130170F0E0808182608083109200027894109273
S11301800602109205028091050290910602CC9716
S11301909CF42FEF83ED90E3215080409040E1F7F1
S11301A000C0000080910502909106020196909390
S11301B0060280930502E7CF80910102909102022A
S11301C045971CF08091000201C080E0882349F02B
S11301D080910702909108020196909308028093FF
S11301E00702809107029091080290930402809381
S11301F003021092080210920702C1CF1F920F92BD
S11302000FB60F9211240BB60F922F938F939F93D7
S1130210EF93FF9380910B0290910C022091C60002
S1130220FC01E35FFC4F2083019690930C028093C2
S11302300B02FF91EF919F918F912F910F900BBE25
S11302400F900FBE0F901F9018951F920F920FB62C
S11302500F9211240BB60F922F938F939F93EF93CA
S1130260FF938091090290910A022091CE00FC0133
S1130270E35FFD4F2083019690930A028093090265
S1130280FF91EF919F918F912F910F900BBE0F9043
S11302900FBE0F901F9018951F920F920FB60F92DA
S11302A011248F939F9380910102909102020196F1
S11302B090930202809301029F918F910F900FBE41
S11302C00F901F9018951F920F920FB60F92112442
S11302D08F9380910002811104C081E08093000219
S11302E002C0109200028F910F900FBE0F901F90CA
S10902F01895F894FFCFFD
S9030000FC
