S010000049525F434F554E542E7372656391
S113000071C0000028C1000039C1000079C100009E
S113001088C0000086C0000084C0000082C00000C8
S113002080C000007EC000007CC000007AC00000D8
S113003078C0000076C0000074C0000072C00000E8
S113004070C000006EC000006CC000006AC00000F8
S113005068C0000066C0000064C0000062C0000008
S113006060C000005EC000005CC000005AC0000018
S113007058C0000056C0000054C0000052C0000028
S113008050C000004EC000004CC000004AC0000038
S113009048C0000046C0000044C0000042C0000048
S11300A040C000003EC000003CC000003AC0000058
S11300B038C0000036C0000034C0000032C0000068
S11300C030C000002EC000002CC000002AC0000078
S11300D028C0000026C0000024C0000022C0000088
S11300E020C0000011241FBECFEFD1E2DEBFCDBF80
S11300F000E00CBF12E0A0E0B2E0E8E9F3E000E0C9
S11301000BBF02C007900D92AC31B107D9F722E0C2
S1130110ACE1B2E001C01D92AB32B207E1F71FD0EF
S113012039C16ECFFC018081882341F09091C000D9
S113013095FFFCCF8093C6003196F5CF08951092B9
S1130140C50087E68093C400E1ECF0E08081886913
S11301508083E2ECF0E08081866080830895CF9311
S1130160DF93CDB7DEB764970FB6F894DEBF0FBE4A
S1130170CDBFE5DF8DB381608DBBE9E6F0E0808122
S1130180836080838DB382608DBB80818C6080832B
S11301908DB384608DBB8081806280831092220243
S11301A01092210210922002789410922A02109246
S11301B029028091290290912A0244979CF42FEFFE
S11301C083ED90E3215080409040E1F700C00000AF
S11301D08091290290912A02019690932A02809399
S11301E02902E7CF8091250290912602909328025C
S11301F080932702109226021092250220911E025B
S113020030911F0230931D0220931C0210921F0292
S113021010921E024AE0BE01655F7F4F88D04AE01B
S1130220BE016F5F7F4F80911C0290911D027FD0B1
S11302308CE092E077DFCE01019674DF89E192E0F1
S113024071DF80E092E06EDFCE010B966BDF89E117
S113025092E068DFAACF1F920F920FB60F9211247B
S11302608F9381E080932202109221021092200247
S11302708F910F900FBE0F901F9018951F920F92A1
S11302800FB60F9211242F933F938F939F938091D6
S113029023029091240201969093240280932302D6
S11302A080912302909124028536910564F0809117
S11302B02202882351F02091200230912102232B25
S11302C029F080E003C080E001C080E0882379F059
S11302D081E090E090932102809320028091250296
S11302E090912602019690932602809325029F9175
S11302F08F913F912F910F900FBE0F901F901895E3
S11303001F920F920FB60F9211248F939F93809197
S11303101E0290911F02019690931F0280931E0269
S11303209F918F910F900FBE0F901F901895BB2730
S11303304A3031F4992322F4BDE2909581959F4F80
S113034001C0BB27FB015527AA27880F991FAA1FA5
S1130350A41710F0A41B83955051B9F7A05DAA33DC
S113036008F0A95DA193009779F7B111B1931192A7
S1130370CB0100C0DC01FC01672F71917723E1F709
S1130380329704C07C916D9370836291AE17BF075E
S10B0390C8F30895F894FFCFAF
S11303984261667520436F756E743A00546F7461D8
S10F03A86C20436F756E743A000A00006C
S9030000FC
