S01D000047534D5F485454505F46494E414C636F6E636174332E737265630D
S113000071C0000034C100008CC000008AC0000030
S113001088C0000086C0000084C0000082C00000C8
S113002080C000007EC000007CC000007AC00000D8
S113003078C0000076C0000074C0000072C00000E8
S113004070C000006EC000006CC000006AC00000F8
S113005068C0000066C0000064C0000062C0000008
S113006060C00000B6C000005CC000005AC00000C0
S113007058C0000056C0000054C0000052C0000028
S113008050C000004EC000004CC000004AC0000038
S1130090C7C0000046C0000044C0000042C00000C9
S11300A040C000003EC000003CC000003AC0000058
S11300B038C0000036C0000034C0000032C0000068
S11300C030C000002EC000002CC000002AC0000078
S11300D028C0000026C0000024C0000022C0000088
S11300E020C0000011241FBECFEFD1E2DEBFCDBF80
S11300F000E00CBF12E0A0E0B2E0E0EAF2E000E0D1
S11301000BBF02C007900D92A030B107D9F724E0CD
S1130110A0E0B2E001C01D92AA30B207E1F722D0FC
S1130120BDC06ECF1092C50087E68093C400E1EC99
S1130130F0E0808188698083E2ECF0E08081866071
S1130140808308951092CD0087E68093CC00E9EC7B
S1130150F0E0808188698083EAECF0E08081866049
S113016080830895DFDFEEDF81E08AB98DB381609B
S11301708DBBE9E6F0E08081826080837894109200
S11301800302109202028091020290910302CC9722
S11301909CF42FEF83ED90E3215080409040E1F7F1
S11301A000C0000080910202909103020196909396
S11301B0030280930202E7CF80910402909105022A
S11301C0909301028093000210920502109204029F
S11301D0D6CF1F920F920FB60F9211240BB60F9227
S11301E02F938F939F93EF93FF93809108029091A5
S11301F009022091C600FC01E65FFC4F20830196B2
S11302009093090280930802FF91EF919F918F913F
S11302102F910F900BBE0F900FBE0F901F9018954B
S11302201F920F920FB60F9211240BB60F922F93B9
S11302308F939F93EF93FF9380910602909107020F
S11302402091CE00FC01E65FFD4F20830196909340
S1130250070280930602FF91EF919F918F912F9156
S11302600F900BBE0F900FBE0F901F9018951F920A
S11302700F920FB60F9211248F939F9380910402D3
S113028090910502019690930502809304029F9138
S11302908F910F900FBE0F901F901895F894FFCF79
S9030000FC
