:1000000071C0000076C100008BC10000A0C10000DB
:10001000B4C10000E3C10000F7C1000082C00000CD
:1000200080C000007EC000007CC000007AC00000DC
:1000300078C0000076C0000074C0000072C00000EC
:1000400070C000006EC000006CC000006AC00000FC
:1000500068C0000066C0000064C0000062C000000C
:1000600060C00000F8C000005CC000005AC0000082
:1000700058C0000056C0000054C0000052C000002C
:1000800050C000004EC000004CC000004AC000003C
:1000900009C1000046C0000044C0000042C000008A
:1000A00040C000003EC000003CC000003AC000005C
:1000B00038C0000036C0000034C0000032C000006C
:1000C00030C000002EC000002CC000002AC000007C
:1000D00028C0000026C0000024C0000022C000008C
:1000E00020C0000011241FBECFEFD1E2DEBFCDBF84
:1000F00000E00CBF12E0A0E0B2E0EEE6F4E000E0C9
:100100000BBF02C007900D92A030B107D9F724E0D1
:10011000A0E0B2E001C01D92AE31B207E1F749D0D4
:10012000A4C16ECF1092C50087E68093C400E1ECB5
:10013000F0E0808188698083E2ECF0E08081866075
:10014000808308951092CD0087E68093CC00E9EC7F
:10015000F0E0808188698083EAECF0E0808186604D
:10016000808308958DB381608DBBE9E6F0E08081E6
:10017000826080838DB382608DBB80818860808344
:100180008DB384608DBB8081806280838DB38860F5
:100190008DBB8081806880838DB380618DBB8081C1
:1001A000826080838DB380628DBB80818860808314
:1001B0000895B8DFC7DFD6DF789410921502109249
:1001C00014028091140290911502CC979CF42FEFA9
:1001D00083ED90E3215080409040E1F700C00000A3
:1001E00080911402909115020196909315028093CC
:1001F0001402E7CF80911802909119029093130294
:100200008093120210921902109218028091160225
:10021000909117029093110280931002109217028E
:1002200010921602809108029091090290930302A5
:100230008093020210920902109208028091060235
:10024000909107029093010280930002109207029E
:1002500010920602B2CF1F920F920FB60F92112486
:100260000BB60F922F938F939F93EF93FF938091F1
:100270001C0290911D022091C600FC01E25EFC4F21
:100280002083019690931D0280931C02FF91EF91B1
:100290009F918F912F910F900BBE0F900FBE0F90DB
:1002A0001F9018951F920F920FB60F9211240BB644
:1002B0000F922F938F939F93EF93FF9380911A0246
:1002C00090911B022091CE00FC01E25EFD4F208345
:1002D000019690931B0280931A02FF91EF919F91D8
:1002E0008F912F910F900BBE0F900FBE0F901F900C
:1002F00018951F920F920FB60F9211248F939F9310
:10030000809118029091190201969093190280939E
:1003100018029F918F910F900FBE0F901F9018950C
:100320001F920F920FB60F9211248F939F9380917B
:10033000160290911702019690931702809316026D
:100340009F918F910F900FBE0F901F9018951F9245
:100350000F920FB60F9211248F9380910F0281118B
:1003600004C081E080930F0202C010920F028F91AF
:100370000F900FBE0F901F9018951F920F920FB6FF
:100380000F9211248F939F9380910A0290910B02F8
:10039000019690930B0280930A02449754F0809147
:1003A0000F02882341F090910402992329F080E004
:1003B00003C080E001C080E0882349F080910802FA
:1003C00090910902019690930902809308029F91EF
:1003D0008F910F900FBE0F901F9018951F920F9244
:1003E0000FB60F9211248F9380910E02811104C0D9
:1003F00081E080930E0202C010920E028F910F9046
:100400000FBE0F901F9018951F920F920FB60F926C
:1004100011248F939F9380910C0290910D0201966D
:1004200090930D0280930C02449754F080910E0239
:10043000882341F090910502992329F080E003C0C0
:1004400080E001C080E0882349F08091060290910D
:100450000702019690930702809306029F918F9165
:0E0460000F900FBE0F901F901895F894FFCFCD
:00000001FF
