S01C0000636F756E7465725F73656E736F725F66696E616C2E73726563A6
S113000071C0000092C10000A7C10000BCC1000083
S1130010CDC100000DC200001EC2000082C000005D
S113002080C000007EC000007CC000007AC00000D8
S113003078C0000076C0000074C0000072C00000E8
S113004070C000006EC000006CC000006AC00000F8
S113005068C0000066C0000064C0000062C0000008
S113006060C0000014C100005CC000005AC0000061
S113007058C0000056C0000054C0000052C0000028
S113008050C000004EC000004CC000004AC0000038
S113009048C0000046C0000044C0000042C0000048
S11300A040C000003EC000003CC000003AC0000058
S11300B038C0000036C0000034C0000032C0000068
S11300C030C000002EC000002CC000002AC0000078
S11300D028C0000026C0000001C1000022C00000AA
S11300E020C0000011241FBECFEFD1E2DEBFCDBF80
S11300F000E00CBF12E0A0E0B2E0EEEDF4E000E0BE
S11301000BBF02C007900D92A433B107D9F724E0C6
S1130110A4E3B2E001C01D92A435B207E1F758D0C0
S1130120DCC16ECFFC018081882341F09091C00036
S113013095FFFCCF8093C6003196F5CF08951092B9
S1130140C50087E68093C400E1ECF0E08081886913
S11301508083E2ECF0E080818660808308951092D1
S1130160350187E680933401E1E3F1E08081886919
S11301708083E2E3F1E080818660808308958DB31B
S113018081608DBBE9E6F0E08081826080838DB37D
S113019082608DBB8081886080838DB384608DBBD9
S11301A08081806380838DB388608DBB8081806C07
S11301B080838DB380618DBBEAE6F0E0808183604B
S11301C080838DB380628DBB80818C608083089531
S11301D0B6DF80E092E0A6DFC2DFD1DF8EE092E0FE
S11301E0A1DF78948BE192E09DDF10924B02109294
S11301F04A0280914A0290914B02181619069CF00B
S11302002FEF83ED90E3215080409040E1F700C050
S1130210000080914A0290914B02019690934B0208
S113022080934A02E6CF88E292E07CDF80914E021E
S113023090914F02909349028093480210924F028A
S113024010924E0280914C0290914D02909347027D
S11302508093460210924D0210924C0280913A0211
S113026090913B02909337028093360210923B02A6
S113027010923A028091380290913902909335029B
S1130280809334021092390210923802AECF1F923A
S11302900F920FB60F9211240BB60F922F938F93D8
S11302A09F93EF93FF938091520290915302209178
S11302B0C600FC01EC5AFC4F208301969093530234
S11302C080935202FF91EF919F918F912F910F9004
S11302D00BBE0F900FBE0F901F9018951F920F9298
S11302E00FB60F9211240BB60F922F938F939F93F7
S11302F0EF93FF9380915002909151022091360127
S1130300FC01EC5AFD4F2083019690935102809397
S11303105002FF91EF919F918F912F910F900BBEFF
S11303200F900FBE0F901F9018951F920F920FB64B
S11303300F9211248F939F9380914E0290914F02BC
S1130340019690934F0280934E029F918F910F904C
S11303500FBE0F901F9018951F920F920FB60F9219
S113036011248F939F9380914C0290914D0201969A
S113037090934D0280934C029F918F910F900FBEEA
S11303800F901F9018951F920F920FB60F92112481
S11303908F9381E0809345021092430210924202AF
S11303A08F910F900FBE0F901F9018951F920F9270
S11303B00FB60F9211242F933F938F939F938091A5
S11303C03C0290913D02019690933D0280933C0241
S11303D080913C0290913D028536910564F08091B4
S11303E04502882351F02091420230914302232B8D
S11303F029F080E003C080E001C080E0882379F028
S113040081E090E0909343028093420280913A020B
S113041090913B02019690933B0280933A029F9104
S11304208F913F912F910F900FBE0F901F901895B1
S11304301F920F920FB60F9211248F9381E0809335
S1130440440210924102109240028F910F900FBE0D
S11304500F901F9018951F920F920FB60F921124B0
S11304602F933F938F939F9380913E0290913F02ED
S1130470019690933F0280933E0280913E029091B8
S11304803F028536910564F080914402882351F03F
S11304902091400230914102232B29F080E003C0D7
S11304A080E001C080E0882379F081E090E09093BF
S11304B04102809340028091380290913902019662
S11304C090933902809338029F918F913F912F919D
S11104D00F900FBE0F901F901895F894FFCF59
S11304DE736F6D657468696E67202D310A00736FD2
S11304EE6D657468696E6720300A00736F6D65748C
S11304FE68696E6720310A00736F6D657468696E82
S107050E670A000074
S9030000FC
