:1000000071C000008EC000008CC00000F1C0000074
:1000100088C0000086C0000084C0000082C00000CC
:1000200080C000007EC000007CC000007AC00000DC
:1000300078C0000076C0000074C0000072C00000EC
:1000400070C000006EC000006CC000006AC00000FC
:1000500068C0000066C0000064C0000062C000000C
:1000600060C000005EC000005CC000005AC000001C
:1000700058C0000056C0000054C0000052C000002C
:1000800050C000004EC000004CC000004AC000003C
:1000900048C0000046C0000044C0000042C000004C
:1000A00040C000003EC000003CC000003AC000005C
:1000B00038C0000036C0000034C0000032C000006C
:1000C00030C000002EC000002CC000002AC000007C
:1000D00028C0000026C0000024C0000022C000008C
:1000E00020C0000011241FBECFEFD1E2DEBFCDBF84
:1000F00000E00CBF12E0A0E0B2E0E8E8F2E000E0CF
:100100000BBF02C007900D92A230B107D9F722E0D1
:10011000A2E0B2E001C01D92A830B207E1F71FD003
:10012000B1C06ECFFC018081882341F09091C00066
:1001300095FFFCCF8093C6003196F5CF08951092BD
:10014000C50087E68093C400E1ECF0E08081886917
:100150008083E2ECF0E08081866080830895CF9315
:10016000DF93CDB7DEB72A970FB6F894DEBF0FBE88
:10017000CDBFE5DF8DB384608DBBE9E6F0E0808123
:100180008062808378941092070210920602809118
:100190000602909107020A979CF42FEF83ED90E3FB
:1001A000215080409040E1F700C00000809106029D
:1001B0009091070201969093070280930602E7CF81
:1001C00080910202909103029093050280930402B1
:1001D00010920302109202024AE0BE016F5F7F4F4D
:1001E0001ED0CE0101969EDF80E092E09BDFCBCF58
:1001F0001F920F920FB60F9211248F939F938091AD
:1002000002029091030201969093030280930202EE
:100210009F918F910F900FBE0F901F901895BB2745
:100220004A3031F4992322F4BDE2909581959F4F95
:1002300001C0BB27FB015527AA27880F991FAA1FBA
:10024000A41710F0A41B83955051B9F7A05DAA33F1
:1002500008F0A95DA193009779F7B111B1931192BC
:10026000CB0100C0DC01FC01672F71917723E1F71E
:10027000329704C07C916D9370836291AE17BF0773
:08028000C8F30895F894FFCFC4
:020288000A006A
:00000001FF
