S014000074696D6572735F72656564322E737265634B
S113000071C000008EC000008CC000008AC00000D7
S113001088C0000060C1000091C1000082C00000DF
S113002080C000007EC000007CC000007AC00000D8
S113003078C0000076C0000074C0000072C00000E8
S113004070C00000B5C100006CC000006AC00000B0
S113005068C0000066C0000064C0000062C0000008
S113006060C0000011C100005CC000005AC0000064
S113007058C0000056C0000054C0000052C0000028
S113008050C000004EC000004CC000004AC0000038
S113009048C0000046C0000044C0000042C0000048
S11300A040C000003EC000003CC000003AC0000058
S11300B038C0000036C0000034C0000032C0000068
S11300C030C000002EC000002CC000002AC0000078
S11300D028C0000026C0000024C0000022C0000088
S11300E020C0000011241FBECFEFD1E2DEBFCDBF80
S11300F000E00CBF12E0A0E0B2E0E8E9F4E000E0C8
S11301000BBF02C007900D92A431B107D9F723E0C9
S1130110A4E1B2E001C01D92A632B207E1F746D0D5
S1130120B9C16ECFFC018081882341F09091C00059
S113013095FFFCCF8093C6003196F5CF08951092B9
S1130140C50087E68093C400E1ECF0E08081886913
S11301508083E2ECF0E080818660808308958DB333
S113016080618DBBEAE6F0E08081816080838DB39D
S113017080628DBB80818C6080830895109285009D
S11301801092840089E09DE3909389008093880015
S1130190E1E8F0E0808188608083AFE6B0E08C9194
S11301A082608C938081856080830895CF93DF93F0
S11301B0CDB7DEB72A970FB6F894DEBF0FBECDBF1A
S11301C0109215021092140210921C0210921B023B
S11301D082E390E09093180280931702649B05C019
S11301E0109221021092160203C081E08093210232
S11301F0A6DFB5DF78941092230210922202809138
S113020022029091230205979CF42FEF83ED90E353
S1130210215080409040E1F700C00000809122020C
S11302209091230201969093230280932202E7CFB8
S113023080912102882321F080E092E073DF03C0E3
S113024087E092E06FDF20911B0230911C028091C5
S11302501D0290911E02820F931F90931C028093A3
S11302601B0210921E0210921D024AE0BE016F5F33
S11302707F4FDDD086E292E055DFCE01019652DF5A
S11302808CE092E04FDFB7CF1F920F920FB60F9220
S113029011240BB60F922F938F939F93EF93FF9399
S11302A080912402909125022091C600FC01EA5D10
S11302B0FD4F208301969093250280932402FF91A1
S11302C0EF919F918F912F910F900BBE0F900FBEC6
S11302D00F901F9018951F920F920FB60F92112432
S11302E00BB60F922F933F934F935F936F937F932C
S11302F08F939F93AF93BF93EF93FF9380911902D2
S113030090911A02892B39F481E090E090931A02BB
S11303108093190233DFFF91EF91BF91AF919F91C9
S11303208F917F916F915F914F913F912F910F909A
S11303300BBE0F900FBE0F901F9018951F920F9237
S11303400FB60F9211242F933F938F939F93809115
S11303502102882321F180911602811120C080910D
S11303601F029091200201969093200280931F0215
S113037020911F023091200280911702909118025F
S11303808217930764F480911D0290911E020196D6
S113039090931E0280931D0281E0809316029F9128
S11303A08F913F912F910F900FBE0F901F90189532
S11303B01F920F920FB60F9211240BB60F922F9328
S11303C03F934F935F936F937F938F939F93AF93D9
S11303D0BF93EF93FF93649B08C08FE092E0A2DE8B
S11303E0109221021092160206C081E192E09ADE78
S11303F081E08093210210921A0210921902EFE612
S1130400F0E080818D7F8083FF91EF91BF91AF9168
S11304109F918F917F916F915F914F913F912F9118
S11304200F900BBE0F900FBE0F901F901895BB2717
S11304304A3031F4992322F4BDE2909581959F4F7F
S113044001C0BB27FB015527AA27880F991FAA1FA4
S1130450A41710F0A41B83955051B9F7A05DAA33DB
S113046008F0A95DA193009779F7B111B1931192A6
S1130470CB0100C0DC01FC01672F71917723E1F708
S1130480329704C07C916D9370836291AE17BF075D
S10B0490C8F30895F894FFCFAE
S1130498636C6F736564006F70656E000D0A004FBE
S10704A80043000009
S9030000FC
