:1000000071C0000056C100006BC1000080C100003B
:10001000AAC1000092C10000D7C1000082C0000048
:1000200080C000007EC000007CC000007AC00000DC
:1000300078C0000076C0000074C0000072C00000EC
:1000400070C000006EC000006CC000006AC00000FC
:1000500068C0000066C0000064C0000062C000000C
:1000600060C00000D8C000005CC000005AC00000A2
:1000700058C0000056C0000054C0000052C000002C
:1000800050C000004EC000004CC000004AC000003C
:10009000E9C0000046C0000044C0000042C00000AB
:1000A00040C000003EC000003CC000003AC000005C
:1000B00038C0000036C0000034C0000032C000006C
:1000C00030C000002EC000002CC000002AC000007C
:1000D00028C0000026C0000024C0000022C000008C
:1000E00020C0000011241FBECFEFD1E2DEBFCDBF84
:1000F00000E00CBF12E0A0E0B2E0EEE2F4E000E0CD
:100100000BBF02C007900D92A030B107D9F724E0D1
:10011000A0E0B2E001C01D92AE31B207E1F722D0FB
:1001200084C16ECF1092C50087E68093C400E1ECD5
:10013000F0E0808188698083E2ECF0E08081866075
:10014000808308951092CD0087E68093CC00E9EC7F
:10015000F0E0808188698083EAECF0E0808186604D
:1001600080830895DFDFEEDF8DB381608DBBE9E62C
:10017000F0E080818260808378941092090210926E
:1001800008028091080290910902CC979CF42FEF0D
:1001900083ED90E3215080409040E1F700C00000E3
:1001A0008091080290910902019690930902809330
:1001B0000802E7CF80910C0290910D029093070204
:1001C0008093060210920D0210920C0280910A0296
:1001D00090910B02909305028093040210920B02FF
:1001E00010920A02809112029091130290930302DE
:1001F0008093020210921302109212028091100258
:1002000090911102909301028093000210921102CA
:1002100010921002B2CF1F920F920FB60F921124BC
:100220000BB60F922F938F939F93EF93FF93809131
:100230001C0290911D022091C600FC01E25EFC4F61
:100240002083019690931D0280931C02FF91EF91F1
:100250009F918F912F910F900BBE0F900FBE0F901B
:100260001F9018951F920F920FB60F9211240BB684
:100270000F922F938F939F93EF93FF9380911A0286
:1002800090911B022091CE00FC01E25EFD4F208385
:10029000019690931B0280931A02FF91EF919F9118
:1002A0008F912F910F900BBE0F900FBE0F901F904C
:1002B00018951F920F920FB60F9211248F939F9350
:1002C00080910C0290910D02019690930D02809303
:1002D0000C029F918F910F900FBE0F901F90189559
:1002E0001F920F920FB60F9211248F939F938091BC
:1002F0000A0290910B02019690930B0280930A02DE
:100300009F918F910F900FBE0F901F9018951F9285
:100310000F920FB60F9211248F9380910F028111CB
:1003200004C081E080930F0202C010920F028F91EF
:100330000F900FBE0F901F9018951F920F920FB63F
:100340000F9211248F9380910E02811104C081E0DD
:1003500080930E0202C010920E028F910F900FBE7A
:100360000F901F9018951F920F920FB60F921124A5
:100370008F939F938091160290911702019690930C
:10038000170280931602449754F080910F0288233D
:1003900041F090911402992329F080E003C080E09D
:1003A00001C080E0882349F08091120290911302ED
:1003B000019690931302809312029F918F910F9058
:1003C0000FBE0F901F9018951F920F920FB60F92AD
:1003D00011248F939F938091180290911902019696
:1003E0009093190280931802449754F080910E0262
:1003F000882341F090911502992329F080E003C0F1
:1004000080E001C080E0882349F080911002909143
:100410001102019690931102809310029F918F9187
:0E0420000F900FBE0F901F901895F894FFCF0D
:00000001FF
