:1000000071C0000076C100008BC10000A0C10000DB
:10001000B1C10000F1C1000002C2000082C00000B6
:1000200080C000007EC000007CC000007AC00000DC
:1000300078C0000076C0000074C0000072C00000EC
:1000400070C000006EC000006CC000006AC00000FC
:1000500068C0000066C0000064C0000062C000000C
:1000600060C00000F8C000005CC000005AC0000082
:1000700058C0000056C0000054C0000052C000002C
:1000800050C000004EC000004CC000004AC000003C
:1000900009C1000046C0000044C0000042C000008A
:1000A00040C000003EC000003CC000003AC000005C
:1000B00038C0000036C0000034C0000032C000006C
:1000C00030C000002EC000002CC000002AC000007C
:1000D00028C0000026C0000024C0000022C000008C
:1000E00020C0000011241FBECFEFD1E2DEBFCDBF84
:1000F00000E00CBF12E0A0E0B2E0E6EAF4E000E0CD
:100100000BBF02C007900D92A030B107D9F724E0D1
:10011000A0E0B2E001C01D92A032B207E1F749D0E1
:10012000C0C16ECF1092C50087E68093C400E1EC99
:10013000F0E0808188698083E2ECF0E08081866075
:10014000808308951092CD0087E68093CC00E9EC7F
:10015000F0E0808188698083EAECF0E0808186604D
:10016000808308958DB381608DBBE9E6F0E08081E6
:10017000826080838DB382608DBB80818860808344
:100180008DB384608DBB8081806380838DB38860F4
:100190008DBB8081806C80838DB380618DBB8081BD
:1001A000836080838DB380628DBB80818C6080830F
:1001B0000895B8DFC7DFD6DF789410921702109247
:1001C00016028091160290911702CC979CF42FEFA3
:1001D00083ED90E3215080409040E1F700C00000A3
:1001E00080911602909117020196909317028093C6
:1001F0001602E7CF80911A0290911B02909315028C
:100200008093140210921B0210921A02809118021D
:100210009091190290931302809312021092190286
:1002200010921802809106029091070290930302A7
:10023000809302021092070210920602809104023B
:1002400090910502909301028093000210920502A2
:1002500010920402B2CF1F920F920FB60F92112488
:100260000BB60F922F938F939F93EF93FF938091F1
:100270001E0290911F022091C600FC01E05EFC4F1F
:100280002083019690931F0280931E02FF91EF91AD
:100290009F918F912F910F900BBE0F900FBE0F90DB
:1002A0001F9018951F920F920FB60F9211240BB644
:1002B0000F922F938F939F93EF93FF9380911C0244
:1002C00090911D022091CE00FC01E05EFD4F208345
:1002D000019690931D0280931C02FF91EF919F91D4
:1002E0008F912F910F900BBE0F900FBE0F901F900C
:1002F00018951F920F920FB60F9211248F939F9310
:1003000080911A0290911B02019690931B02809398
:100310001A029F918F910F900FBE0F901F9018950A
:100320001F920F920FB60F9211248F939F9380917B
:100330001802909119020196909319028093180265
:100340009F918F910F900FBE0F901F9018951F9245
:100350000F920FB60F9211248F9381E080931102B8
:1003600010920F0210920E028F910F900FBE0F90FD
:100370001F9018951F920F920FB60F9211242F9372
:100380003F938F939F938091080290910902019669
:1003900090930902809308028091080290910902CB
:1003A0008536910564F080911102882351F02091E7
:1003B0000E0230910F02232B29F080E003C080E071
:1003C00001C080E0882379F081E090E090930F02F3
:1003D00080930E02809106029091070201969093FD
:1003E0000702809306029F918F913F912F910F906A
:1003F0000FBE0F901F9018951F920F920FB60F927D
:1004000011248F9381E08093100210920D021092BC
:100410000C028F910F900FBE0F901F9018951F9296
:100420000F920FB60F9211242F933F938F939F93A8
:1004300080910A0290910B02019690930B02809397
:100440000A0280910A0290910B028536910564F0B0
:1004500080911002882351F020910C0230910D02FE
:10046000232B29F080E003C080E001C080E08823D6
:1004700079F081E090E090930D0280930C028091DE
:100480000402909105020196909305028093040264
:100490009F918F913F912F910F900FBE0F901F90C2
:0604A0001895F894FFCF4F
:00000001FF
