S013000074696D6572735F726565642E737265637E
S113000071C000008EC000008CC000008AC00000D7
S113001088C0000026C1000057C1000082C0000053
S113002080C000007EC000007CC000007AC00000D8
S113003078C0000076C0000074C0000072C00000E8
S113004070C000007BC100006CC000006AC00000EA
S113005068C0000066C0000064C0000062C0000008
S113006060C00000D7C000005CC000005AC000009F
S113007058C0000056C0000054C0000052C0000028
S113008050C000004EC000004CC000004AC0000038
S113009048C0000046C0000044C0000042C0000048
S11300A040C000003EC000003CC000003AC0000058
S11300B038C0000036C0000034C0000032C0000068
S11300C030C000002EC000002CC000002AC0000078
S11300D028C0000026C0000024C0000022C0000088
S11300E020C0000011241FBECFEFD1E2DEBFCDBF80
S11300F000E00CBF12E0A0E0B2E0E2EEF3E000E0CA
S11301000BBF02C007900D92A230B107D9F723E0CC
S1130110A2E0B2E001C01D92A031B207E1F73BD0EA
S11301205EC16ECFFC018081882341F09091C000B4
S113013095FFFCCF8093C6003196F5CF08951092B9
S1130140C50087E68093C400E1ECF0E08081886913
S11301508083E2ECF0E080818660808308958DB333
S113016080618DBBEAE6F0E08081816080838DB39D
S113017080628DBB80818C608083089584E280934B
S1130180880084EF8093890082E080936F008CE084
S1130190809381000895CF93DF93CDB7DEB72A977C
S11301A00FB6F894DEBF0FBECDBFC9DFD8DF789499
S11301B010920D0210920C0280910C0290910D028B
S11301C00F979CF42FEF83ED90E3215080409040F3
S11301D0E1F700C0000080910C0290910D0201969D
S11301E090930D0280930C02E7CF809107029091C7
S11301F0080290930602809305021092080210925E
S113020007024AE0BE016F5F7F4FB6D0CE01019670
S113021089DFCECF1F920F920FB60F9211240BB627
S11302200F922F938F939F93EF93FF9380910E02DE
S113023090910F022091C600FC01E05FFD4F2083E6
S1130240019690930F0280930E02FF91EF919F917C
S11302508F912F910F900BBE0F900FBE0F901F9098
S113026018951F920F920FB60F9211240BB60F928E
S11302702F933F934F935F936F937F938F939F93AA
S1130280AF93BF93EF93FF93809103029091040285
S1130290892B39F481E090E0909304028093030267
S11302A06DDFFF91EF91BF91AF919F918F917F91FE
S11302B06F915F914F913F912F910F900BBE0F90D3
S11302C00FBE0F901F9018951F920F920FB60F92AA
S11302D011242F933F938F939F9380910B02882334
S11302E021F180910202811120C080910902909134
S11302F00A02019690930A0280930902209109024E
S113030030910A02809100029091010282179307B2
S113031064F4809107029091080201969093080278
S11303208093070281E0809302029F918F913F9115
S11303302F910F900FBE0F901F9018951F920F9240
S11303400FB60F9211248F9389B1811105C01092B9
S11303500B021092020203C081E080930B02109200
S113036004021092030288E0809381008F910F9021
S11303700FBE0F901F901895BB274A3031F4992374
S113038022F4BDE2909581959F4F01C0BB27FB01EC
S11303905527AA27880F991FAA1FA41710F0A41B7A
S11303A083955051B9F7A05DAA3308F0A95DA193D4
S11303B0009779F7B111B1931192CB0100C0DC0120
S11303C0FC01672F71917723E1F7329704C07C9188
S11303D06D9370836291AE17BF07C8F30895F894C4
S10503E0FFCF49
S10503E23200E3
S9030000FC
