S013000074696D6572735F726565642E737265637E
S113000071C000008EC000008CC000008AC00000D7
S113001088C00000FFC0000017C1000082C00000BB
S113002080C000007EC000007CC000007AC00000D8
S113003078C0000076C0000074C0000072C00000E8
S113004070C0000020C100006CC000006AC0000045
S113005068C0000066C0000064C0000062C0000008
S113006060C00000B0C000005CC000005AC00000C6
S113007058C0000056C0000054C0000052C0000028
S113008050C000004EC000004CC000004AC0000038
S113009048C0000046C0000044C0000042C0000048
S11300A040C000003EC000003CC000003AC0000058
S11300B038C0000036C0000034C0000032C0000068
S11300C030C000002EC000002CC000002AC0000078
S11300D028C0000026C0000024C0000022C0000088
S11300E020C0000011241FBECFEFD1E2DEBFCDBF80
S11300F000E00CBF12E0A0E0B2E0EEE1F3E000E0CB
S11301000BBF02C007900D92A430B107D9F723E0CA
S1130110A4E0B2E001C01D92A031B207E1F72ED0F5
S1130120FCC06ECFFC018081882341F09091C00017
S113013095FFFCCF8093C6003196F5CF08951092B9
S1130140C50087E68093C400E1ECF0E08081886913
S11301508083E2ECF0E080818660808308958DB333
S113016080618DBBEAE6F0E08081816080838DB39D
S113017080628DBB80818C6080830895CF93DF93F0
S1130180CDB7DEB72A970FB6F894DEBF0FBECDBF4A
S1130190D6DFE5DF78948091090290910A0290936A
S11301A008028093070210920A02109209024AE0A0
S11301B0BE016F5F7F4F7ED0CE010196B3DF80E03A
S11301C092E0B0DFE8CF1F920F920FB60F92112486
S11301D00BB60F922F938F939F93EF93FF9380917E
S11301E00E0290910F022091C600FC01E05FFD4FCA
S11301F02083019690930F0280930E02FF91EF915A
S11302009F918F912F910F900BBE0F900FBE0F9067
S11302101F9018951F920F920FB60F9211248F936F
S11302209F938091050290910602892B31F481E01D
S113023090E090930602809305029F918F910F9016
S11302400FBE0F901F9018951F920F920FB60F922A
S113025011248F939F9380910D02882369F08091DC
S11302600402811109C080910B0290910C02019645
S113027090930C0280930B029F918F910F900FBE6D
S11302800F901F9018951F920F920FB60F92112482
S11302908F939F938091090290910A020196909303
S11302A00A02809309029F918F910F900FBE0F90C5
S11302B01F901895BB274A3031F4992322F4BDE2EC
S11302C0909581959F4F01C0BB27FB015527AA2715
S11302D0880F991FAA1FA41710F0A41B83955051CF
S11302E0B9F7A05DAA3308F0A95DA193009779F747
S11302F0B111B1931192CB0100C0DC01FC01672F55
S113030071917723E1F7329704C07C916D937083E8
S11103106291AE17BF07C8F30895F894FFCFAB
S107031E0D0A0000C0
S9030000FC
