:1000000071C000007AC100008FC10000A4C10000CF
:10001000B5C10000F5C1000006C2000082C00000AA
:1000200080C000007EC000007CC000007AC00000DC
:1000300078C0000076C0000074C0000072C00000EC
:1000400070C000006EC000006CC000006AC00000FC
:1000500068C0000066C0000064C0000062C000000C
:1000600060C00000B7C000005CC000005AC00000C3
:1000700058C0000056C0000054C0000052C000002C
:1000800050C000004EC000004CC000004AC000003C
:1000900048C0000046C0000044C0000042C000004C
:1000A00040C000003EC000003CC000003AC000005C
:1000B00038C0000036C0000034C0000032C000006C
:1000C00030C000002EC000002CC000002AC000007C
:1000D00028C0000026C0000056C0000022C000005A
:1000E00020C0000011241FBECFEFD1E2DEBFCDBF84
:1000F00000E00CBF12E0A0E0B2E0EEEAF4E000E0C5
:100100000BBF02C007900D92A030B107D9F724E0D1
:10011000A0E0B2E001C01D92A032B207E1F7CAD060
:10012000C4C16ECF80911E0490911F049093190456
:100130008093180410921F0410921E0480911C04D6
:1001400090911D04909317048093160410921D043F
:1001500010921C0480910A0490910B049093070460
:100160008093060410920B0410920A0480910804F4
:10017000909109049093050480930404109209045B
:100180001092080408951F920F920FB60F92112437
:100190000BB60F922F938F939F93EF93FF938091C2
:1001A00000029091010220913601FC01EC5FFD4FAD
:1001B000208301969093010280930002FF91EF91BA
:1001C0009F918F912F910F900BBE0F900FBE0F90AC
:1001D0001F9018951F920F920FB60F9211240BB615
:1001E0000F922F938F939F93EF93FF93809102022F
:1001F000909103022091C600FC01EC5FFC4F20832C
:1002000001969093030280930202FF91EF919F91D8
:100210008F912F910F900BBE0F900FBE0F901F90DC
:1002200018958DB381608DBBE9E6F0E08081826036
:1002300080838DB382608DBB8081886080838DB325
:1002400084608DBB8081806180838DB388608DBB2D
:100250008081806C80838DB380618DBBEAE6F0E0A5
:100260008081816080838DB380628DBB80818C6052
:10027000808308951092C50087E68093C400E1EC66
:10028000F0E0808188698083E2ECF0E08081866024
:10029000808308951092350187E680933401E1E36D
:1002A000F1E0808188698083E2E3F1E0808186600B
:1002B00080830895DFDFEEDFB4DF789410921B04B3
:1002C00010921A0480911A0490911B04CC979CF40C
:1002D0002FEF83ED90E3215080409040E1F700C084
:1002E000000080911A0490911B04019690931B04C6
:1002F00080931A04E7CF16DFE1CF1F920F920FB65B
:100300000F9211248F939F9380911E0490911F044C
:10031000019690931F0480931E049F918F910F90DC
:100320000FBE0F901F9018951F920F920FB60F924D
:1003300011248F939F9380911C0490911D0401962A
:1003400090931D0480931C049F918F910F900FBE7A
:100350000F901F9018951F920F920FB60F921124B5
:100360008F9381E08093150410921304109212046D
:100370008F910F900FBE0F901F9018951F920F92A4
:100380000FB60F9211242F933F938F939F938091D9
:100390000C0490910D04019690930D0480930C042D
:1003A00080910C0490910D048536910564F0809144
:1003B0001504882351F02091120430911304232B4B
:1003C00029F080E003C080E001C080E0882379F05C
:1003D00081E090E0909313048093120480910A04CA
:1003E00090910B04019690930B0480930A049F91C3
:1003F0008F913F912F910F900FBE0F901F901895E6
:100400001F920F920FB60F9211248F9381E0809369
:10041000140410921104109210048F910F900FBECB
:100420000F901F9018951F920F920FB60F921124E4
:100430002F933F938F939F9380910E0490910F047D
:10044000019690930F0480930E0480910E04909176
:100450000F048536910564F080911404882351F0CF
:100460002091100430911104232B29F080E003C067
:1004700080E001C080E0882379F081E090E09093F3
:10048000110480931004809108049091090401964E
:1004900090930904809308049F918F913F912F912D
:0E04A0000F900FBE0F901F901895F894FFCF8D
:00000001FF
